S01E000052413245315F424B425F444333463631515F657030312E73726563F1
S31500000000184500201D0F0000090E0000190F000002
S31500000010190F0000190F0000190F0000190F00003A
S31500000020000000000000000000000000190F0000A2
S31500000030190F000000000000190F0000190F000042
S31500000040E10B0000000000000000000000000000BE
S31500000050CD060000390600006D070000B907000054
S31500000060000000000000000000000000000000008A
S31500000070000000000000000000000000000000007A
S31500000080000000000000000000000000000000006A
S31500000090000000000000000000000000000000005A
S31500000400FFFFFFFFDFCEFFFFFCFF0F00FFFF0F0028
S31500000410FCFF0F00FFFF0F00FCFF0F00FFFF0F00A8
S31500000420FCFF0F20FFFF0F20FCFF7F40FFFF7F40F8
S31500000430FCFF0D40FFFF0D40FFFFFFFFFFFFFFFF2B
S31500000440FFFFFFFFFFFFFFFFFFFFFFFFFFFFFFFFB6
S31500000450FFFFFFFFFFFFFFFFFFFFFFFFFFFFFFFFA6
S31500000460FFFFFFFFFFFFFFFFFFFFFFFFFFFFFFFF96
S31500000470FFFFFFFFFFFFFFFFFFFFFFFFFFFFFFFF86
S31500000480FFFFFFFFFFFFFFFFFFFFFFFFFFFFFFFF76
S31500000490FFFFFFFFFFFFFFFFFFFFFFFFFFFFFFFF66
S315000004A0FFFFFFFFFFFFFFFFFFFFFFFFFFFFFFFF56
S315000004B0FFFFFFFFFFFFFFFFFFFFFFFFFFFFFFFF46
S315000004C0FFFFFFFFFFFFFFFFFFFFFFFFFFFFFFFF36
S315000004D0FFFFFFFFFFFFFFFFFFFFFFFFFFFFFFFF26
S315000004E0FFFFFFFFFFFFFFFFFFFFFFFFFFFFFFFF16
S315000004F0FFFFFFFFFFFFFFFFFFFFFFFFFFFFFFFF06
S3150000050044F2080044F20803C2F20000C2F20003FB
S3150000051010B5834205D040F20003C0F2000303B1D8
S31500000520984710BD44F2080044F20803C2F20000E6
S31500000530C2F200031B1A9A10D90F8918491010B578
S3150000054029B140F20003C0F2000303B1984710BD81
S3150000055010B544F22004C2F20004237873B9FFF701
S31500000560CFFF40F20003C0F200032BB141F2DC20C2
S31500000570C0F2000000E000BF0123237010BDC0469A
S3150000058040F20003C0F2000310B54BB144F224015F
S3150000059041F2DC20C2F20001C0F2000000E000BF20
S315000005A0FFF7C0FF10BDC0467047C04610B538B94A
S315000005B04CF2000390220121C4F27E03995410BD2F
S315000005C00228FCD141F2541344F23C00C0F200036D
S315000005D05968C2F2000000F053FAF0E710B5FFF7D1
S315000005E0E3FF002010BDC046F0B5C64600B50500C5
S315000005F0806A84B08C4690466C46D8B123000600CB
S3150000060086CE86C336681E60EB691B780360634638
S31500000610836043460371EB6AC3606B6A9847AB6AB3
S3150000062023B123CC23C31A002368136004B080BC13
S31500000630B846F0BD2000E7E770B5EFF30383103B43
S315000006405BB21A0046F20001C032C4F20001920009
S3150000065050581D4C20405050525844F288029B007E
S31500000660C2F200029858C3691B6913B1036913B13A
S3150000067070BD036983B97F23026A91780B40042118
S315000006800B4393700023C360436A002BF0D0802293
S315000006900021FFF7A9FFEBE7032182781140022929
S315000006A00AD0C168046A0D78E5709207920F9B1A0A
S315000006B089180361C160DAE74FF60066C168056A0A
S315000006C00C883443EC81F0E7FFFFFEFF10B582B0E3
S315000006D0EFF30383103B5BB21A0046F20001C0320F
S315000006E0C4F20001920050581F4C204050505258FE
S315000006F044F288029B00C2F200029C580323A278AF
S315000007001340022B0DD0236A5979A369C9B201910E
S3150000071083B9636A1BB104222000FFF765FF02B0AC
S3150000072010BD40F2FF11236A1B8A1940A36901918B
S31500000730002BEED09207920F606901A900F0C4FC6D
S31500000740A37862699B079B0FD2186261A269D31ACC
S31500000750A361002BE3D1636A002BE0D001220021C4
S315000007602000FFF741FFDAE7FFFFFEFF10B5EFF3CA
S31500000770038444F28803103C64B2C2F20003A20070
S31500000780D0587B23026A91780B409370436A1BB161
S3150000079002220021FFF728FF230046F20002C033A1
S315000007A0C4F200029B0099580248014099509B5898
S315000007B010BDC046FFFFFEFF70B5EFF3038444F2A1
S315000007C08803103C64B2C2F20003A200D05803238F
S315000007D082781340022B22D0036A5979C9B2382293
S315000007E01D792A40ED0602D51D7FED0714D5382662
S315000007F01D79B5431D71436A0BB1FFF7F5FE230062
S3150000080046F20002C033C4F200029B009958074822
S31500000810014099509B5870BD40252A43E7E740F2B6
S31500000820FF11036A1A8A1140D9E7C046FFFFFEFF8F
S315000008300023036000207047FF2010B540F6000437
S315000008400B0A084019010918C4F2040489000B595F
S3150000085000209B07DB0F137010BDC0460023C4F2B7
S3150000086004039C46090A490161444B680020138031
S315000008707047C0460020C4F2040084461800090AE6
S3150000088090430004134049010343614400208B60F8
S315000008907047C046FF2001230840834052B91B041D
S315000008A00022C4F204029446090A49016144002068
S315000008B08B6070474FF6FF721340F1E70020C4F2D9
S315000008C0040084461800090A490110B561440C6801
S315000008D010402043934398430860002010BDC04653
S315000008E00023C4F204039C46090A490161444B688B
S315000008F000201B0C138070470020C4F204008446BD
S315000009000B0A5B0163445868FF231940FE3B8B408A
S31500000910000C99B203405B1A59424B4100201370F8
S315000009207047C0460020C4F2040084461800090A35
S315000009309043000413404901034361440020CB6007
S315000009407047C0460023C4F204039C46080A4001CF
S31500000950604410B5C468012A0AD0FF2280230A40E9
S315000009605B02934023431B0C1B04C360002010BD95
S31500000970FF230B409A404FF6FF731A402243134061
S31500000980F3E7C046F0B5DE4657464E464546E0B567
S3150000099083B0EFF31082012383F3108844F28403BB
S315000009A0C2F2000301931B6833B940F60051C4F24A
S315000009B00401CB704033CB7001990B6801330B6097
S315000009C082F3108803889A46C3B3802340F6000555
S315000009D05B029946294B002240F2FF089C4641687B
S315000009E0C4F204050BE04446330A1B0126409B195A
S315000009F001329B0092B25851083192451ED04B46A7
S31500000A0008688E881842EED04446330A1B012640F9
S31500000A109C19A700644600977F599B1927403C0004
S31500000A20009F01327C51674607403C00009F9B00B7
S31500000A3092B27C51083158519245E0D1EFF31082C1
S31500000A40012383F31088019B1B681BB101990B6876
S31500000A50013B0B60019B1B6833B940F60051C4F2A1
S31500000A600401CB708033CB7082F3108803B0F0BCE6
S31500000A70BB46B246A946A046F0BDC046FFFFFEFFF4
S31500000A8045F2542310B5C5F24F0303600800FFF783
S31500000A9079FF002010BDC04610B50800FFF772FFB1
S31500000AA0002010BDF0B5EFF31084012383F3108806
S31500000AB044F28403C2F20003186830B940F60055C8
S31500000AC0C4F20405E8704030E87018680130186018
S31500000AD084F31088D00321D4FF24080A00012140A2
S31500000AE040F600044018C4F2040480000251EFF3FB
S31500000AF01082012181F31088196811B11968013932
S31500000B0019601B6833B940F60051C4F20401CB707A
S31500000B108033CB7082F310880020F0BDFF2440F6AE
S31500000B200005080A000121404418C4F20405A40087
S31500000B306759034E3740164067516651D0E7C046A5
S31500000B40FFFFFEFF70B5C56904000E0088B0A5B1B1
S31500000B5020222900684600F0B7FA2022310028003A
S31500000B6000F0B2FA2800A3699847E06918B120227C
S31500000B70694600F0A9FA08B070BD0D00F2E7C0465C
S31500000B8030B5010089B0EFF3038344F28802103BCD
S31500000B905BB2C2F200029B009858EFF3038346F261
S31500000BA00002103B5BB2C033C4F200029B009C58AB
S31500000BB00A4D2C409C509B586B466A469970436878
S31500000BC01B88138000231372036A0193836913B190
S31500000BD06946FFF7B7FF09B030BDC046FFFFFEFF0D
S31500000BE010B50020FFF7CCFF10BDC0464EF2000343
S31500000BF0262244F20801C4F20103985C1B6A8000B5
S31500000C00C2F2000141585B015B0F44F21012D94059
S31500000C10C2F20002116070474EF2000340F2FE324B
S31500000C204B49C4F2010370B599524CF20002002000
S31500000C3043F6C871C4F27E02505444F2080446F6E4
S31500000C400042C2F20004C0F2DC22226041F200221D
S31500000C50C0F27A02626048F2000242F20041A260EB
S31500000C6022612622C0F2F401E160995C1A6A8900C9
S31500000C7061585201520F44F21015D14040F213420E
S31500000C80C2F20005296098540921A222995440F223
S31500000C908042995C002953D04EF20002002340F2B4
S31500000CA08141C4F20102535401395354A033D35C39
S31500000CB0CBB13623D35C1BB93C21535CDB07FCD597
S31500000CC04EF20002A021C4F20102535CDB06D80FEB
S31500000CD0002BFADB50544EF20002A021C4F20102AE
S31500000CE0535CDB06FCD44EF2000200213623C4F22C
S31500000CF00102D1543C31535CDB07FCD50121312381
S31500000D00D1544FF6C473C4F27E03197040F2001337
S31500000D1000201362DA3BD054D05C136A800020585E
S31500000D205B015B0FD84040F2FE3328600948D05281
S31500000D304CF2000343F6C872C4F27E03995470BDA8
S31500000D40013140F2C440995400F030F8A4E7C0469F
S31500000D5003A5FFFF00A5FFFF70B544F2000428239A
S31500000D600025C4F20404E5540121C82000F01EF851
S31500000D7024232422E554A35C002BFCD10221A35C8E
S31500000D8024200B43A35444F20002C4F20402135C71
S31500000D909B07D90F002BFADB2223D15470BDC04626
S31500000DA07047C04601380028FCD1704744F2101243
S31500000DB04CF600234143C2F2000270B51468C3F634
S31500000DC09A330D00B3FBF4F4080040F2E832002336
S31500000DD0002100F04BF931B9B0FBF4F0800808B1FE
S31500000DE0FFF7E0FF70BDA000B5FBF0F040F2E8327F
S31500000DF00023002100F03AF90029F0D001204042FA
S31500000E00FFF7D0FFEEE7C046F8B546F2000340F222
S31500000E10401244F2440500240127C4F200039E5AFE
S31500000E20C2F20005B6B23300E340E0B21F4202D080
S31500000E302B6803B1984701340435102CF3D146F2E0
S31500000E40000340F23012C4F200039E52F8BDC046C1
S31500000E5046F200000023C4F2000041F28022C0F2F4
S31500000E6000029A1811781A00C0329200013311500C
S31500000E70202BF2D17047C04630B5EFF31081012325
S31500000E8083F3108844F208134000C2F200031A5A92
S31500000E901AB11A5A013A92B21A521B5A83B94EF231
S31500000EA0000241F2D42340F2FE34C4F20102C0F241
S31500000EB00003155B185A044B2B4383439BB2135311
S31500000EC081F3108830BDC04600A5FFFF70B5EFF373
S31500000ED01081012383F3108844F208124000C2F205
S31500000EE00002135A83B94EF2000441F2D42540F2AF
S31500000EF0FE36C4F20104C0F20005A35B2D5A2B4353
S31500000F004AF200552B43A353135A01339BB2135293
S31500000F1081F3108870BDC04600BE704710B500F062
S31500000F2003F8FFF75BFBFEE7F0B54EF6005340F221
S31500000F300005CEF20003C0F2000583B09D600020DC
S31500000F40FFF734FBFFF768FE6B460027DC1D2770B2
S31500000F5001202378FFF7BAFFEFF31081012686F30D
S31500000F60108846F6FC73C4F204039A683C480240B3
S31500000F709A609A6881F3108840F60001C4F2040171
S31500000F800A68D207D20F22700A68D207D20F2270DF
S31500000F900A68D207D20F2270EFF3108186F3108809
S31500000FA080229868520502439A609B6881F31088F4
S31500000FB00120FFF761FF0120FFF7F8FA40F6005322
S31500000FC0284AC4F200039F8027491A802A6841F202
S31500000FD0000051189960DA6046F2000240F22011D2
S31500000FE0C4F20002505244F2141244F22000C2F23B
S31500000FF00002C2F200009E800021121A00F06DF875
S3150000100044F2000044F2080241F2E021C2F200007C
S31500001010C2F20002121AC0F2000100F055F844F2C2
S31500001020000544F20403C2F20005C2F200035B1B92
S315000010309E10002B05DD002408CD01349847A642FA
S31500001040FADCFFF7D3FDFFF787FE0220FFF7AEFAC3
S31500001050FFF7FEFE0020FFF7A3FE03B0F0BDC0467B
S31500001060FFFFFFEF00A5FFFF00FCFFFFF0B54FF607
S31500001070FF75CE4647462C0015400E002900044059
S31500001080994680B5130C0700000C6143454358434D
S3150000109063430C0C5B19E4188C46A54203D98023E4
S315000010A05B0298464044230C61461B1820044FF609
S315000010B0FF740C4049465643794389190019C918EB
S315000010C0C0BCB946B046F0BD002310B59A4200D167
S315000010D010BDCC5CC4540133F8E703008218934278
S315000010E000D1704719700133F9E7FFFF4275696C4B
S315000010F07420776974682052656E65736173204148
S315000011006476616E63656420466C657869626C65B9
S3150000111020536F667477617265205061636B6167F7
S31500001120652076657273696F6E20342E342E30001A
S31500001130342E342E3000000000000404F8B5C046FA
S31500001140F8BC08BC9E467047F8B5C046F8BC08BC5B
S315000011509E4670473C40002060110000A01200002F
S31500001160230000006811000000800000000000005D
S3150000117000800000010000000040000002000000A6
S31500001180008000000A000000008000000B00000044
S31500001190040000000D000000040000000E00000026
S315000011A0104000000F0000000000010400010000D4
S315000011B0000001040101000004000000020100001B
S315000011C004000000030100001040000004010000BC
S315000011D000000100080100000000010509010000EF
S315000011E0000001050A010000000001030B010000D8
S315000011F0000001030C010000104000000602000080
S3150000120004000000070200000400000008020000BD
S31500001210000001030C020000000001030D020000A3
S3150000122000000100000300000400000001030000AC
S315000012300400000002030000040000000004000097
S315000012400040000001040000040000000704000044
S31500001250040000000804000000400000090400002B
S315000012600400000000050000050000000D09000054
S31500001270040000000E090000040000000F09000031
S31500001280070000001E1C1E1A0000000000000000DF
S315000012900000000000000000000000000000000048
S315000012A0810A000031080000990A0000A50A000022
S315000012B0F9080000450900003908000095080000FB
S315000012C0BD080000E1080000250900005D080000D7
S315000012D07508000001000200080010000000000070
S30D000012E0810500005105000024
S31501010018FFFFFFFFFFFFFFFFFFFFFFFFFFFFFFFFE0
S31101010028FFFFFFFFFFFFFFFFFFFFFFFFD0
S70500000F1DCE
